{
  "contractName": "User",
  "abi": [
    {
      "inputs": [],
      "payable": false,
      "stateMutability": "nonpayable",
      "type": "constructor"
    },
    {
      "constant": true,
      "inputs": [],
      "name": "owner",
      "outputs": [
        {
          "internalType": "uint256",
          "name": "id",
          "type": "uint256"
        },
        {
          "internalType": "address",
          "name": "addr",
          "type": "address"
        },
        {
          "internalType": "string",
          "name": "username",
          "type": "string"
        }
      ],
      "payable": false,
      "stateMutability": "view",
      "type": "function"
    },
    {
      "constant": true,
      "inputs": [],
      "name": "userCount",
      "outputs": [
        {
          "internalType": "uint256",
          "name": "",
          "type": "uint256"
        }
      ],
      "payable": false,
      "stateMutability": "view",
      "type": "function"
    },
    {
      "constant": true,
      "inputs": [
        {
          "internalType": "uint256",
          "name": "",
          "type": "uint256"
        }
      ],
      "name": "users",
      "outputs": [
        {
          "internalType": "uint256",
          "name": "id",
          "type": "uint256"
        },
        {
          "internalType": "address",
          "name": "addr",
          "type": "address"
        },
        {
          "internalType": "string",
          "name": "username",
          "type": "string"
        }
      ],
      "payable": false,
      "stateMutability": "view",
      "type": "function"
    },
    {
      "constant": true,
      "inputs": [],
      "name": "getOwner",
      "outputs": [
        {
          "internalType": "uint256",
          "name": "",
          "type": "uint256"
        },
        {
          "internalType": "address",
          "name": "",
          "type": "address"
        },
        {
          "internalType": "string",
          "name": "",
          "type": "string"
        }
      ],
      "payable": false,
      "stateMutability": "view",
      "type": "function"
    },
    {
      "constant": true,
      "inputs": [],
      "name": "getNumUsers",
      "outputs": [
        {
          "internalType": "uint256",
          "name": "",
          "type": "uint256"
        }
      ],
      "payable": false,
      "stateMutability": "view",
      "type": "function"
    },
    {
      "constant": true,
      "inputs": [
        {
          "internalType": "uint256",
          "name": "_id",
          "type": "uint256"
        }
      ],
      "name": "retrieve",
      "outputs": [
        {
          "internalType": "uint256",
          "name": "",
          "type": "uint256"
        },
        {
          "internalType": "address",
          "name": "",
          "type": "address"
        },
        {
          "internalType": "string",
          "name": "",
          "type": "string"
        }
      ],
      "payable": false,
      "stateMutability": "view",
      "type": "function"
    },
    {
      "constant": false,
      "inputs": [
        {
          "internalType": "string",
          "name": "_username",
          "type": "string"
        }
      ],
      "name": "create",
      "outputs": [
        {
          "internalType": "uint256",
          "name": "",
          "type": "uint256"
        },
        {
          "internalType": "address",
          "name": "",
          "type": "address"
        },
        {
          "internalType": "string",
          "name": "",
          "type": "string"
        }
      ],
      "payable": false,
      "stateMutability": "nonpayable",
      "type": "function"
    }
  ],
  "bytecode": "0x60806040526000805534801561001457600080fd5b506100596040518060400160405280600881526020017f76616e697469657300000000000000000000000000000000000000000000000081525061006160201b60201c565b5050506102f4565b6000806060604051806060016040528060005481526020013373ffffffffffffffffffffffffffffffffffffffff1681526020018581525060046000805481526020019081526020016000206000820151816000015560208201518160010160006101000a81548173ffffffffffffffffffffffffffffffffffffffff021916908373ffffffffffffffffffffffffffffffffffffffff160217905550604082015181600201908051906020019061011a92919061024f565b5090505061012c61023c60201b60201c565b600460008054815260200190815260200160002060000154600460008054815260200190815260200160002060010160009054906101000a900473ffffffffffffffffffffffffffffffffffffffff166004600080548152602001908152602001600020600201808054600181600116156101000203166002900480601f0160208091040260200160405190810160405280929190818152602001828054600181600116156101000203166002900480156102285780601f106101fd57610100808354040283529160200191610228565b820191906000526020600020905b81548152906001019060200180831161020b57829003601f168201915b505050505090509250925092509193909250565b6000808154809291906001019190505550565b828054600181600116156101000203166002900490600052602060002090601f016020900481019282601f1061029057805160ff19168380011785556102be565b828001600101855582156102be579182015b828111156102bd5782518255916020019190600101906102a2565b5b5090506102cb91906102cf565b5090565b6102f191905b808211156102ed5760008160009055506001016102d5565b5090565b90565b610b1780620003046000396000f3fe608060405234801561001057600080fd5b506004361061007d5760003560e01c8063893d20e81161005b578063893d20e81461019f5780638da5cb5b1461025c5780638f88708b14610319578063b6a46b3b146103fa5761007d565b806307973ccf14610082578063365b98b2146100a057806365f88c0d14610181575b600080fd5b61008a610568565b6040518082815260200191505060405180910390f35b6100cc600480360360208110156100b657600080fd5b810190808035906020019092919050505061056e565b604051808481526020018373ffffffffffffffffffffffffffffffffffffffff1673ffffffffffffffffffffffffffffffffffffffff16815260200180602001828103825283818151815260200191508051906020019080838360005b83811015610144578082015181840152602081019050610129565b50505050905090810190601f1680156101715780820380516001836020036101000a031916815260200191505b5094505050505060405180910390f35b610189610650565b6040518082815260200191505060405180910390f35b6101a7610659565b604051808481526020018373ffffffffffffffffffffffffffffffffffffffff1673ffffffffffffffffffffffffffffffffffffffff16815260200180602001828103825283818151815260200191508051906020019080838360005b8381101561021f578082015181840152602081019050610204565b50505050905090810190601f16801561024c5780820380516001836020036101000a031916815260200191505b5094505050505060405180910390f35b610264610673565b604051808481526020018373ffffffffffffffffffffffffffffffffffffffff1673ffffffffffffffffffffffffffffffffffffffff16815260200180602001828103825283818151815260200191508051906020019080838360005b838110156102dc5780820151818401526020810190506102c1565b50505050905090810190601f1680156103095780820380516001836020036101000a031916815260200191505b5094505050505060405180910390f35b6103456004803603602081101561032f57600080fd5b8101908080359060200190929190505050610743565b604051808481526020018373ffffffffffffffffffffffffffffffffffffffff1673ffffffffffffffffffffffffffffffffffffffff16815260200180602001828103825283818151815260200191508051906020019080838360005b838110156103bd5780820151818401526020810190506103a2565b50505050905090810190601f1680156103ea5780820380516001836020036101000a031916815260200191505b5094505050505060405180910390f35b6104b36004803603602081101561041057600080fd5b810190808035906020019064010000000081111561042d57600080fd5b82018360208201111561043f57600080fd5b8035906020019184600183028401116401000000008311171561046157600080fd5b91908080601f016020809104026020016040519081016040528093929190818152602001838380828437600081840152601f19601f820116905080830192505050505050509192919290505050610855565b604051808481526020018373ffffffffffffffffffffffffffffffffffffffff1673ffffffffffffffffffffffffffffffffffffffff16815260200180602001828103825283818151815260200191508051906020019080838360005b8381101561052b578082015181840152602081019050610510565b50505050905090810190601f1680156105585780820380516001836020036101000a031916815260200191505b5094505050505060405180910390f35b60005481565b60046020528060005260406000206000915090508060000154908060010160009054906101000a900473ffffffffffffffffffffffffffffffffffffffff1690806002018054600181600116156101000203166002900480601f0160208091040260200160405190810160405280929190818152602001828054600181600116156101000203166002900480156106465780601f1061061b57610100808354040283529160200191610646565b820191906000526020600020905b81548152906001019060200180831161062957829003601f168201915b5050505050905083565b60008054905090565b60008060606106686000610743565b925092509250909192565b60018060000154908060010160009054906101000a900473ffffffffffffffffffffffffffffffffffffffff1690806002018054600181600116156101000203166002900480601f0160208091040260200160405190810160405280929190818152602001828054600181600116156101000203166002900480156107395780601f1061070e57610100808354040283529160200191610739565b820191906000526020600020905b81548152906001019060200180831161071c57829003601f168201915b5050505050905083565b600080606060046000858152602001908152602001600020600001546004600086815260200190815260200160002060010160009054906101000a900473ffffffffffffffffffffffffffffffffffffffff1660046000878152602001908152602001600020600201808054600181600116156101000203166002900480601f0160208091040260200160405190810160405280929190818152602001828054600181600116156101000203166002900480156108415780601f1061081657610100808354040283529160200191610841565b820191906000526020600020905b81548152906001019060200180831161082457829003601f168201915b505050505090509250925092509193909250565b6000806060604051806060016040528060005481526020013373ffffffffffffffffffffffffffffffffffffffff1681526020018581525060046000805481526020019081526020016000206000820151816000015560208201518160010160006101000a81548173ffffffffffffffffffffffffffffffffffffffff021916908373ffffffffffffffffffffffffffffffffffffffff160217905550604082015181600201908051906020019061090e929190610a3d565b5090505061091a610a2a565b600460008054815260200190815260200160002060000154600460008054815260200190815260200160002060010160009054906101000a900473ffffffffffffffffffffffffffffffffffffffff166004600080548152602001908152602001600020600201808054600181600116156101000203166002900480601f016020809104026020016040519081016040528092919081815260200182805460018160011615610100020316600290048015610a165780601f106109eb57610100808354040283529160200191610a16565b820191906000526020600020905b8154815290600101906020018083116109f957829003601f168201915b505050505090509250925092509193909250565b6000808154809291906001019190505550565b828054600181600116156101000203166002900490600052602060002090601f016020900481019282601f10610a7e57805160ff1916838001178555610aac565b82800160010185558215610aac579182015b82811115610aab578251825591602001919060010190610a90565b5b509050610ab99190610abd565b5090565b610adf91905b80821115610adb576000816000905550600101610ac3565b5090565b9056fea265627a7a72315820501e2e45dac244c97ae7ed566ee24ae953bf988583c43037a9bab6278b14e1cf64736f6c63430005100032",
  "source": "pragma solidity >=0.4.22 <0.7.0;\n\n/**\n * @title User\n * @dev a CRUD for a user\n * @author vanities\n */\ncontract User {\n    uint256 public userCount = 0;\n    struct UserProfile {\n        uint id;\n        address addr;\n        string username;\n    }\n    \n    UserProfile public owner;\n    \n    // This declares a state variable that\n    // stores a `Voter` struct for each possible address.\n    mapping(uint => UserProfile) public users;\n    \n    // modifier to check if caller is owner\n    modifier isOwner() {\n        require(msg.sender == owner.addr, \"Caller is not owner\");\n        _;\n    }\n    \n    function getOwner() public view returns (uint, address, string memory) {\n        return retrieve(0);\n    }\n\n    function getNumUsers() public view returns (uint) {\n        return userCount;\n    }\n    \n    \n    /**\n     * @dev Set contract deployer as owner\n     */\n    constructor() public {\n        create(\"vanities\");\n    }\n\n    /**\n     * @dev Retrieve\n     * @return User tuple\n     */\n    function retrieve(uint _id) public view returns (uint, address, string memory) {\n        return (users[_id].id, users[_id].addr, users[_id].username);\n    }\n\n    /**\n     * @dev Create\n     * @return User tuple\n     */\n    function create(string memory _username) public returns(uint, address, string memory) {\n        users[userCount] = UserProfile(userCount, msg.sender, _username);\n        incrementUserCount();\n        return (users[userCount].id, users[userCount].addr, users[userCount].username);\n\n    }\n\n    function incrementUserCount() internal {\n        userCount++;\n    }\n}\n",
  "sourcePath": "/Users/vanities/git/fun/bitchan/solidity/contracts/User.sol",
  "compiler": {
    "name": "solc",
    "version": "0.5.16+commit.9c3226ce.Emscripten.clang"
  },
  "schemaVersion": "3.1.0",
  "updatedAt": "2020-05-14T18:07:37.799Z",
  "devdoc": {
    "author": "vanities",
    "details": "a CRUD for a user",
    "methods": {
      "constructor": {
        "details": "Set contract deployer as owner"
      },
      "create(string)": {
        "details": "Create",
        "return": "User tuple"
      },
      "retrieve(uint256)": {
        "details": "Retrieve",
        "return": "User tuple"
      }
    },
    "title": "User"
  },
  "userdoc": {
    "methods": {}
  }
}