{
  "contractName": "Bitchan",
  "abi": [
    {
      "inputs": [
        {
          "internalType": "uint256",
          "name": "_feeOriginalPost",
          "type": "uint256"
        },
        {
          "internalType": "uint256",
          "name": "_feeReplyPost",
          "type": "uint256"
        }
      ],
      "payable": false,
      "stateMutability": "nonpayable",
      "type": "constructor"
    },
    {
      "anonymous": false,
      "inputs": [
        {
          "indexed": false,
          "internalType": "uint256",
          "name": "replyId",
          "type": "uint256"
        },
        {
          "indexed": false,
          "internalType": "uint256",
          "name": "replyTo",
          "type": "uint256"
        },
        {
          "indexed": false,
          "internalType": "string",
          "name": "text",
          "type": "string"
        },
        {
          "indexed": false,
          "internalType": "string",
          "name": "imageUrl",
          "type": "string"
        },
        {
          "indexed": false,
          "internalType": "uint256",
          "name": "timestamp",
          "type": "uint256"
        }
      ],
      "name": "newReplyEvent",
      "type": "event"
    },
    {
      "anonymous": false,
      "inputs": [
        {
          "indexed": false,
          "internalType": "uint256",
          "name": "threadId",
          "type": "uint256"
        },
        {
          "indexed": false,
          "internalType": "string",
          "name": "text",
          "type": "string"
        },
        {
          "indexed": false,
          "internalType": "string",
          "name": "imageUrl",
          "type": "string"
        },
        {
          "indexed": false,
          "internalType": "uint256",
          "name": "timestamp",
          "type": "uint256"
        }
      ],
      "name": "originalPostEvent",
      "type": "event"
    },
    {
      "constant": true,
      "inputs": [],
      "name": "feeOriginalPost",
      "outputs": [
        {
          "internalType": "uint256",
          "name": "",
          "type": "uint256"
        }
      ],
      "payable": false,
      "stateMutability": "view",
      "type": "function"
    },
    {
      "constant": true,
      "inputs": [],
      "name": "feeReplyPost",
      "outputs": [
        {
          "internalType": "uint256",
          "name": "",
          "type": "uint256"
        }
      ],
      "payable": false,
      "stateMutability": "view",
      "type": "function"
    },
    {
      "constant": true,
      "inputs": [],
      "name": "indexLastThreads",
      "outputs": [
        {
          "internalType": "uint256",
          "name": "",
          "type": "uint256"
        }
      ],
      "payable": false,
      "stateMutability": "view",
      "type": "function"
    },
    {
      "constant": true,
      "inputs": [],
      "name": "indexReplies",
      "outputs": [
        {
          "internalType": "uint256",
          "name": "",
          "type": "uint256"
        }
      ],
      "payable": false,
      "stateMutability": "view",
      "type": "function"
    },
    {
      "constant": true,
      "inputs": [
        {
          "internalType": "uint256",
          "name": "",
          "type": "uint256"
        }
      ],
      "name": "lastThreads",
      "outputs": [
        {
          "internalType": "uint256",
          "name": "",
          "type": "uint256"
        }
      ],
      "payable": false,
      "stateMutability": "view",
      "type": "function"
    },
    {
      "constant": true,
      "inputs": [],
      "name": "originalPostCount",
      "outputs": [
        {
          "internalType": "uint256",
          "name": "",
          "type": "uint256"
        }
      ],
      "payable": false,
      "stateMutability": "view",
      "type": "function"
    },
    {
      "constant": true,
      "inputs": [
        {
          "internalType": "uint256",
          "name": "",
          "type": "uint256"
        }
      ],
      "name": "replies",
      "outputs": [
        {
          "internalType": "string",
          "name": "text",
          "type": "string"
        },
        {
          "internalType": "string",
          "name": "imageUrl",
          "type": "string"
        },
        {
          "internalType": "uint256",
          "name": "replyTo",
          "type": "uint256"
        },
        {
          "internalType": "uint256",
          "name": "nextReply",
          "type": "uint256"
        },
        {
          "internalType": "uint256",
          "name": "timestamp",
          "type": "uint256"
        }
      ],
      "payable": false,
      "stateMutability": "view",
      "type": "function"
    },
    {
      "constant": true,
      "inputs": [
        {
          "internalType": "uint256",
          "name": "",
          "type": "uint256"
        }
      ],
      "name": "threads",
      "outputs": [
        {
          "internalType": "string",
          "name": "text",
          "type": "string"
        },
        {
          "internalType": "string",
          "name": "imageUrl",
          "type": "string"
        },
        {
          "internalType": "uint256",
          "name": "indexLastReply",
          "type": "uint256"
        },
        {
          "internalType": "uint256",
          "name": "indexFirstReply",
          "type": "uint256"
        },
        {
          "internalType": "uint256",
          "name": "timestamp",
          "type": "uint256"
        }
      ],
      "payable": false,
      "stateMutability": "view",
      "type": "function"
    },
    {
      "constant": false,
      "inputs": [
        {
          "internalType": "uint256",
          "name": "_feeOriginalPost",
          "type": "uint256"
        },
        {
          "internalType": "uint256",
          "name": "_feeReplyPost",
          "type": "uint256"
        }
      ],
      "name": "SetFees",
      "outputs": [],
      "payable": false,
      "stateMutability": "nonpayable",
      "type": "function"
    },
    {
      "constant": false,
      "inputs": [
        {
          "internalType": "uint256",
          "name": "amount",
          "type": "uint256"
        }
      ],
      "name": "withdraw",
      "outputs": [],
      "payable": false,
      "stateMutability": "nonpayable",
      "type": "function"
    },
    {
      "constant": false,
      "inputs": [
        {
          "internalType": "string",
          "name": "_text",
          "type": "string"
        },
        {
          "internalType": "string",
          "name": "_imageUrl",
          "type": "string"
        }
      ],
      "name": "createThread",
      "outputs": [],
      "payable": true,
      "stateMutability": "payable",
      "type": "function"
    },
    {
      "constant": false,
      "inputs": [
        {
          "internalType": "uint256",
          "name": "_replyTo",
          "type": "uint256"
        },
        {
          "internalType": "string",
          "name": "_text",
          "type": "string"
        },
        {
          "internalType": "string",
          "name": "_imageUrl",
          "type": "string"
        }
      ],
      "name": "replyPost",
      "outputs": [],
      "payable": true,
      "stateMutability": "payable",
      "type": "function"
    }
  ],
  "bytecode": "0x6080604052600060045560006006556000601b5534801561001f57600080fd5b50604051610d9c380380610d9c8339818101604052604081101561004257600080fd5b50805160209091015160008054600160a060020a03191633179055600191909155600255610d27806100756000396000f3fe6080604052600436106100c4576000357c0100000000000000000000000000000000000000000000000000000000900480637f4f88e4116100815780637f4f88e4146103c7578063c37d8a7e146103dc578063c3c6e202146103f1578063c4880f3714610406578063cb1650b41461041b578063f552b2ba14610548576100c4565b8063020953f1146100c957806317075992146100f05780631d9d92741461011a5780632e1a7d4d146102505780633be6e6371461027a5780635c7c366d146102aa575b600080fd5b3480156100d557600080fd5b506100de610572565b60408051918252519081900360200190f35b3480156100fc57600080fd5b506100de6004803603602081101561011357600080fd5b5035610578565b61024e6004803603606081101561013057600080fd5b8135919081019060408101602082013564010000000081111561015257600080fd5b82018360208201111561016457600080fd5b8035906020019184600183028401116401000000008311171561018657600080fd5b91908080601f01602080910402602001604051908101604052809392919081815260200183838082843760009201919091525092959493602081019350359150506401000000008111156101d957600080fd5b8201836020820111156101eb57600080fd5b8035906020019184600183028401116401000000008311171561020d57600080fd5b91908080601f01602080910402602001604051908101604052809392919081815260200183838082843760009201919091525092955061058c945050505050565b005b34801561025c57600080fd5b5061024e6004803603602081101561027357600080fd5b5035610834565b34801561028657600080fd5b5061024e6004803603604081101561029d57600080fd5b508035906020013561087e565b3480156102b657600080fd5b506102d4600480360360208110156102cd57600080fd5b50356108ad565b604051808060200180602001868152602001858152602001848152602001838103835288818151815260200191508051906020019080838360005b8381101561032757818101518382015260200161030f565b50505050905090810190601f1680156103545780820380516001836020036101000a031916815260200191505b50838103825287518152875160209182019189019080838360005b8381101561038757818101518382015260200161036f565b50505050905090810190601f1680156103b45780820380516001836020036101000a031916815260200191505b5097505050505050505060405180910390f35b3480156103d357600080fd5b506100de6109fe565b3480156103e857600080fd5b506100de610a04565b3480156103fd57600080fd5b506100de610a0a565b34801561041257600080fd5b506100de610a10565b61024e6004803603604081101561043157600080fd5b81019060208101813564010000000081111561044c57600080fd5b82018360208201111561045e57600080fd5b8035906020019184600183028401116401000000008311171561048057600080fd5b91908080601f01602080910402602001604051908101604052809392919081815260200183838082843760009201919091525092959493602081019350359150506401000000008111156104d357600080fd5b8201836020820111156104e557600080fd5b8035906020019184600183028401116401000000008311171561050757600080fd5b91908080601f016020809104026020016040519081016040528093929190818152602001838380828437600092019190915250929550610a16945050505050565b34801561055457600080fd5b506102d46004803603602081101561056b57600080fd5b5035610beb565b60045481565b6007816014811061058557fe5b0154905081565b60025434101561059b57600080fd5b600454831080156105ac5750600083115b6105b557600080fd5b6040805160a08101825283815260208082018490528183018690526000606083018190524260808401526006548152600582529290922081518051929391926106019284920190610c57565b50602082810151805161061a9260018501920190610c57565b5060408201518160020155606082015181600301556080820151816004015590505060036000848152602001908152602001600020600301546000141561067e576006546000848152600360208190526040909120908101829055600201556106ac565b6006546000848152600360208181526040808420600201805485526005835290842083018590559287905252555b60005b60148160ff16101561070b578360078260ff16601481106106cc57fe5b015414156106d95761070b565b8060ff166013141561070357836007601b54601481106106f557fe5b015560146001601b5408601b555b6001016106af565b507f0a10376fec2af3cfd7b84cf2d443bc3479c71cc96b6523d20fc876f4cdce745160065484848442604051808681526020018581526020018060200180602001848152602001838103835286818151815260200191508051906020019080838360005b8381101561078757818101518382015260200161076f565b50505050905090810190601f1680156107b45780820380516001836020036101000a031916815260200191505b50838103825285518152855160209182019187019080838360005b838110156107e75781810151838201526020016107cf565b50505050905090810190601f1680156108145780820380516001836020036101000a031916815260200191505b5097505050505050505060405180910390a1505060068054600101905550565b6000805460405173ffffffffffffffffffffffffffffffffffffffff9091169183156108fc02918491818181858888f1935050505015801561087a573d6000803e3d6000fd5b5050565b60005473ffffffffffffffffffffffffffffffffffffffff1633146108a257600080fd5b600191909155600255565b60056020908152600091825260409182902080548351601f600260001961010060018616150201909316929092049182018490048402810184019094528084529092918391908301828280156109445780601f1061091957610100808354040283529160200191610944565b820191906000526020600020905b81548152906001019060200180831161092757829003601f168201915b505050505090806001018054600181600116156101000203166002900480601f0160208091040260200160405190810160405280929190818152602001828054600181600116156101000203166002900480156109e25780601f106109b7576101008083540402835291602001916109e2565b820191906000526020600020905b8154815290600101906020018083116109c557829003601f168201915b5050505050908060020154908060030154908060040154905085565b60025481565b60065481565b601b5481565b60015481565b600154341015610a2557600080fd5b6040805160a0810182528381526020808201849052600082840181905260608301819052426080840152600454815260038252929092208151805192939192610a719284920190610c57565b506020828101518051610a8a9260018501920190610c57565b50604082015160028201556060820151600382015560809091015160049182015554601b5460079060148110610abc57fe5b015560146001601b5408601b819055507f8cbc6bbf4bae237c936e5a09cddb79e3cbeadb518148061448890f60d274981e600454838342604051808581526020018060200180602001848152602001838103835286818151815260200191508051906020019080838360005b83811015610b40578181015183820152602001610b28565b50505050905090810190601f168015610b6d5780820380516001836020036101000a031916815260200191505b50838103825285518152855160209182019187019080838360005b83811015610ba0578181015183820152602001610b88565b50505050905090810190601f168015610bcd5780820380516001836020036101000a031916815260200191505b50965050505050505060405180910390a15050600480546001019055565b60036020908152600091825260409182902080548351601f600260001961010060018616150201909316929092049182018490048402810184019094528084529092918391908301828280156109445780601f1061091957610100808354040283529160200191610944565b828054600181600116156101000203166002900490600052602060002090601f016020900481019282601f10610c9857805160ff1916838001178555610cc5565b82800160010185558215610cc5579182015b82811115610cc5578251825591602001919060010190610caa565b50610cd1929150610cd5565b5090565b610cef91905b80821115610cd15760008155600101610cdb565b9056fea265627a7a72315820fe05dd6ef1c75235f15b71935314c03141c16090f8de70159f28466419a2718464736f6c63430005100032",
  "source": "/**\n * @title Bitchan\n * @dev message board republic\n * @author vanities\n * @notice thanks to: https://etherscan.io/address/0x470fb19D08c3d2eB8923A31d1408c393Dab09ccF#code\n */\n\npragma solidity >=0.4.22 <0.7.0;\n\ncontract Bitchan {\n\n\taddress payable private owner;\n\n\tuint256 public feeOriginalPost;\n\tuint256 public feeReplyPost;\n\n\tstruct thread {\n\t\tstring text;\n\t\tstring imageUrl;\n\n\t\tuint256 indexLastReply;\n\t\tuint256 indexFirstReply;\n\n\t\tuint256 timestamp;\n\t}\n\tmapping (uint256 => thread) public threads;\n\tuint256 public originalPostCount = 0;\n\n\tstruct reply {\n\t\tstring text;\n\t\tstring imageUrl;\n\n\t\tuint256 replyTo;\n\t\tuint256 nextReply;\n\n\t\tuint256 timestamp;\n\t}\n\tmapping (uint256 => reply) public replies;\n\tuint256 public indexReplies = 0;\n\n\t// last 20 active threads\n\tuint256[20] public lastThreads;\n\tuint256 public indexLastThreads = 0; // the index of the thread that was added last in lastThreads\n\n\t//\n\t// Events\n\t//\n\n\tevent originalPostEvent(uint256 threadId, string text, string imageUrl, uint256 timestamp);\n\n\tevent newReplyEvent(uint256 replyId, uint256 replyTo, string text, string imageUrl, uint256 timestamp);\n\n\t//\n\t// Meta\n\t//\n\n\tconstructor(uint256 _feeOriginalPost, uint256 _feeReplyPost) public {\n\t\towner = msg.sender;\n\t\tfeeOriginalPost = _feeOriginalPost;\n\t\tfeeReplyPost = _feeReplyPost;\n\t}\n\n\t// modifying the fees\n\tfunction SetFees(uint256 _feeOriginalPost, uint256 _feeReplyPost) public {\n\t\trequire(owner == msg.sender);\n\t\tfeeOriginalPost = _feeOriginalPost;\n\t\tfeeReplyPost = _feeReplyPost;\n\t}\n\n\t// To get the money back\n\tfunction withdraw(uint256 amount) public {\n\t\towner.transfer(amount);\n\t}\n\n\t//\n\t// Core\n\t//\n\n\t// To create a Thread\n\tfunction createThread(string memory _text, string memory _imageUrl) payable public {\n\t\t// collect the fees\n\t\trequire(msg.value >= feeOriginalPost);\n\t\t// calculate a new thread ID and post\n\t\tthreads[originalPostCount] = thread(_text, _imageUrl, 0, 0, now);\n\t\t// add it to our last active threads array\n\t\tlastThreads[indexLastThreads] = originalPostCount;\n\t\tindexLastThreads = addmod(indexLastThreads, 1, 20); // increment index\n\t\t// log!\n\t\temit originalPostEvent(originalPostCount, _text, _imageUrl, now);\n\t\t// increment index for next thread\n\t\toriginalPostCount += 1;\n\t}\n\n\t// To reply to a thread\n\tfunction replyPost(uint256 _replyTo, string memory _text, string memory _imageUrl)  payable public {\n\t\t// collect the fees\n\t\trequire(msg.value >= feeReplyPost);\n\t\t// make sure you can't reply to an inexistant thread\n\t\trequire(_replyTo < originalPostCount && _replyTo > 0);\n\t\t// post the reply with nextReply = 0 (this is the last message in the chain)\n\t\treplies[indexReplies] = reply(_text, _imageUrl, _replyTo, 0, now);\n\t\t// update the thread\n\t\tif(threads[_replyTo].indexFirstReply == 0){// we're first\n\t\t\tthreads[_replyTo].indexFirstReply = indexReplies;\n\t\t\tthreads[_replyTo].indexLastReply = indexReplies;\n\t\t}\n\t\telse { // we're not first so we update the previous reply as well\n\t\t\treplies[threads[_replyTo].indexLastReply].nextReply = indexReplies;\n\t\t\tthreads[_replyTo].indexLastReply = indexReplies;\n\t\t}\n\t\t// update the last active threads\n\t\tfor (uint8 i = 0; i < 20; i++) {\n\t\t\tif(lastThreads[i] == _replyTo) {\n\t\t\t\tbreak; // already in the list\n\t\t\t}\n\t\t\tif(i == 19) {\n\t\t\t\tlastThreads[indexLastThreads] = _replyTo;\n\t\t\t\tindexLastThreads = addmod(indexLastThreads, 1, 20);\n\t\t\t}\n\t\t}\n\t\t// log!\n\t\temit newReplyEvent(indexReplies, _replyTo, _text, _imageUrl, now);\n\t\t// increment index for next reply\n\t\tindexReplies += 1;\n\t}\n}\n",
  "sourcePath": "/sources/contracts/Bitchan.sol",
  "compiler": {
    "name": "solc",
    "version": "0.5.16+commit.9c3226ce.Emscripten.clang"
  },
  "schemaVersion": "3.1.0",
  "updatedAt": "2020-05-30T07:41:00.074Z",
  "devdoc": {
    "methods": {}
  },
  "userdoc": {
    "methods": {}
  }
}