{
  "contractName": "User",
  "abi": [
    {
      "inputs": [],
      "payable": false,
      "stateMutability": "nonpayable",
      "type": "constructor"
    },
    {
      "constant": true,
      "inputs": [],
      "name": "owner",
      "outputs": [
        {
          "internalType": "uint256",
          "name": "id",
          "type": "uint256"
        },
        {
          "internalType": "address",
          "name": "addr",
          "type": "address"
        },
        {
          "internalType": "string",
          "name": "username",
          "type": "string"
        }
      ],
      "payable": false,
      "stateMutability": "view",
      "type": "function"
    },
    {
      "constant": true,
      "inputs": [],
      "name": "userCount",
      "outputs": [
        {
          "internalType": "uint256",
          "name": "",
          "type": "uint256"
        }
      ],
      "payable": false,
      "stateMutability": "view",
      "type": "function"
    },
    {
      "constant": true,
      "inputs": [
        {
          "internalType": "uint256",
          "name": "",
          "type": "uint256"
        }
      ],
      "name": "users",
      "outputs": [
        {
          "internalType": "uint256",
          "name": "id",
          "type": "uint256"
        },
        {
          "internalType": "address",
          "name": "addr",
          "type": "address"
        },
        {
          "internalType": "string",
          "name": "username",
          "type": "string"
        }
      ],
      "payable": false,
      "stateMutability": "view",
      "type": "function"
    },
    {
      "constant": true,
      "inputs": [],
      "name": "getOwner",
      "outputs": [
        {
          "internalType": "uint256",
          "name": "",
          "type": "uint256"
        },
        {
          "internalType": "address",
          "name": "",
          "type": "address"
        },
        {
          "internalType": "string",
          "name": "",
          "type": "string"
        }
      ],
      "payable": false,
      "stateMutability": "view",
      "type": "function"
    },
    {
      "constant": true,
      "inputs": [],
      "name": "getNumUsers",
      "outputs": [
        {
          "internalType": "uint256",
          "name": "",
          "type": "uint256"
        }
      ],
      "payable": false,
      "stateMutability": "view",
      "type": "function"
    },
    {
      "constant": true,
      "inputs": [
        {
          "internalType": "uint256",
          "name": "_id",
          "type": "uint256"
        }
      ],
      "name": "retrieve",
      "outputs": [
        {
          "internalType": "uint256",
          "name": "",
          "type": "uint256"
        },
        {
          "internalType": "address",
          "name": "",
          "type": "address"
        },
        {
          "internalType": "string",
          "name": "",
          "type": "string"
        }
      ],
      "payable": false,
      "stateMutability": "view",
      "type": "function"
    },
    {
      "constant": false,
      "inputs": [
        {
          "internalType": "string",
          "name": "_username",
          "type": "string"
        }
      ],
      "name": "create",
      "outputs": [
        {
          "internalType": "uint256",
          "name": "",
          "type": "uint256"
        },
        {
          "internalType": "address",
          "name": "",
          "type": "address"
        },
        {
          "internalType": "string",
          "name": "",
          "type": "string"
        }
      ],
      "payable": false,
      "stateMutability": "nonpayable",
      "type": "function"
    }
  ],
  "bytecode": "0x60806040526000805534801561001457600080fd5b506100626040518060400160405280600881526020017f76616e697469657300000000000000000000000000000000000000000000000081525061006a640100000000026401000000009004565b505050610252565b60408051606080820183526000805480845233602080860191825285870188815292845260048152958320855181559051600182018054600160a060020a031916600160a060020a039092169190911790559051805192958695936100d592600285019201906101b7565b506100ea9150506401000000006101ac810204565b6000805481526004602090815260409182902080546001808301546002938401805487516101009482161594909402600019011694909404601f81018690048602830186019096528582529194600160a060020a0390921693909183918301828280156101985780601f1061016d57610100808354040283529160200191610198565b820191906000526020600020905b81548152906001019060200180831161017b57829003601f168201915b505050505090509250925092509193909250565b600080546001019055565b828054600181600116156101000203166002900490600052602060002090601f016020900481019282601f106101f857805160ff1916838001178555610225565b82800160010185558215610225579182015b8281111561022557825182559160200191906001019061020a565b50610231929150610235565b5090565b61024f91905b80821115610231576000815560010161023b565b90565b61063a806102616000396000f3fe608060405234801561001057600080fd5b506004361061009a576000357c010000000000000000000000000000000000000000000000000000000090048063893d20e811610078578063893d20e8146101765780638da5cb5b1461017e5780638f88708b14610186578063b6a46b3b146101a35761009a565b806307973ccf1461009f578063365b98b2146100b957806365f88c0d1461016e575b600080fd5b6100a7610249565b60408051918252519081900360200190f35b6100d6600480360360208110156100cf57600080fd5b503561024f565b6040518084815260200183600160a060020a0316600160a060020a0316815260200180602001828103825283818151815260200191508051906020019080838360005b83811015610131578181015183820152602001610119565b50505050905090810190601f16801561015e5780820380516001836020036101000a031916815260200191505b5094505050505060405180910390f35b6100a7610305565b6100d661030c565b6100d6610326565b6100d66004803603602081101561019c57600080fd5b5035610395565b6100d6600480360360208110156101b957600080fd5b8101906020810181356401000000008111156101d457600080fd5b8201836020820111156101e657600080fd5b8035906020019184600183028401116401000000008311171561020857600080fd5b91908080601f01602080910402602001604051908101604052809392919081815260200183838082843760009201919091525092955061045b945050505050565b60005481565b60046020908152600091825260409182902080546001808301546002808501805488516101009582161595909502600019011691909104601f81018790048702840187019097528683529295600160a060020a03909116949192918301828280156102fb5780601f106102d0576101008083540402835291602001916102fb565b820191906000526020600020905b8154815290600101906020018083116102de57829003601f168201915b5050505050905083565b6000545b90565b600080606061031b6000610395565b925092509250909192565b600180546002805460038054604080516020601f600019858b16156101000201909416969096049283018690048602810186019091528181529495600160a060020a039093169492938301828280156102fb5780601f106102d0576101008083540402835291602001916102fb565b600081815260046020908152604080832080546001808301546002938401805486516101009482161594909402600019011694909404601f810187900487028301870190955284825286956060959394600160a060020a039092169391929183918301828280156104475780601f1061041c57610100808354040283529160200191610447565b820191906000526020600020905b81548152906001019060200180831161042a57829003601f168201915b505050505090509250925092509193909250565b6040805160608082018352600080548084523360208086019182528587018881529284526004815295832085518155905160018201805473ffffffffffffffffffffffffffffffffffffffff1916600160a060020a039092169190911790559051805192958695936104d3926002850192019061056d565b509050506104df610562565b6000805481526004602090815260409182902080546001808301546002938401805487516101009482161594909402600019011694909404601f81018690048602830186019096528582529194600160a060020a0390921693909183918301828280156104475780601f1061041c57610100808354040283529160200191610447565b600080546001019055565b828054600181600116156101000203166002900490600052602060002090601f016020900481019282601f106105ae57805160ff19168380011785556105db565b828001600101855582156105db579182015b828111156105db5782518255916020019190600101906105c0565b506105e79291506105eb565b5090565b61030991905b808211156105e757600081556001016105f156fea265627a7a7231582024e90bc9a52ce862b42d6a9d4de067e6e357a52cd16415caceb57d770801c21f64736f6c63430005100032",
  "source": "pragma solidity >=0.4.22 <0.7.0;\n\n/**\n * @title User\n * @dev a CRUD for a user\n * @author vanities\n */\ncontract User {\n    uint256 public userCount = 0;\n    struct UserProfile {\n        uint id;\n        address addr;\n        string username;\n    }\n    \n    UserProfile public owner;\n    \n    // This declares a state variable that\n    // stores a `Voter` struct for each possible address.\n    mapping(uint => UserProfile) public users;\n    \n    // modifier to check if caller is owner\n    modifier isOwner() {\n        require(msg.sender == owner.addr, \"Caller is not owner\");\n        _;\n    }\n    \n    function getOwner() public view returns (uint, address, string memory) {\n        return retrieve(0);\n    }\n\n    function getNumUsers() public view returns (uint) {\n        return userCount;\n    }\n    \n    \n    /**\n     * @dev Set contract deployer as owner\n     */\n    constructor() public {\n        create(\"vanities\");\n    }\n\n    /**\n     * @dev Retrieve\n     * @return User tuple\n     */\n    function retrieve(uint _id) public view returns (uint, address, string memory) {\n        return (users[_id].id, users[_id].addr, users[_id].username);\n    }\n\n    /**\n     * @dev Create\n     * @return User tuple\n     */\n    function create(string memory _username) public returns(uint, address, string memory) {\n        users[userCount] = UserProfile(userCount, msg.sender, _username);\n        incrementUserCount();\n        return (users[userCount].id, users[userCount].addr, users[userCount].username);\n\n    }\n\n    function incrementUserCount() internal {\n        userCount++;\n    }\n}\n",
  "sourcePath": "/sources/contracts/User.sol",
  "compiler": {
    "name": "solc",
    "version": "0.5.16+commit.9c3226ce.Emscripten.clang"
  },
  "schemaVersion": "3.1.0",
  "updatedAt": "2020-05-26T15:10:23.248Z",
  "networkType": "ethereum",
  "devdoc": {
    "author": "vanities",
    "details": "a CRUD for a user",
    "methods": {
      "constructor": {
        "details": "Set contract deployer as owner"
      },
      "create(string)": {
        "details": "Create",
        "return": "User tuple"
      },
      "retrieve(uint256)": {
        "details": "Retrieve",
        "return": "User tuple"
      }
    },
    "title": "User"
  },
  "userdoc": {
    "methods": {}
  }
}