{
  "contractName": "Bitchan",
  "abi": [
    {
      "inputs": [
        {
          "internalType": "uint256",
          "name": "_feeCreateThread",
          "type": "uint256"
        },
        {
          "internalType": "uint256",
          "name": "_feeReplyPost",
          "type": "uint256"
        }
      ],
      "payable": false,
      "stateMutability": "nonpayable",
      "type": "constructor"
    },
    {
      "anonymous": false,
      "inputs": [
        {
          "indexed": false,
          "internalType": "uint256",
          "name": "threadId",
          "type": "uint256"
        },
        {
          "indexed": false,
          "internalType": "string",
          "name": "subject",
          "type": "string"
        },
        {
          "indexed": false,
          "internalType": "string",
          "name": "text",
          "type": "string"
        },
        {
          "indexed": false,
          "internalType": "string",
          "name": "imageUrl",
          "type": "string"
        },
        {
          "indexed": false,
          "internalType": "uint256",
          "name": "timestamp",
          "type": "uint256"
        }
      ],
      "name": "createThreadEvent",
      "type": "event"
    },
    {
      "anonymous": false,
      "inputs": [
        {
          "indexed": false,
          "internalType": "uint256",
          "name": "replyId",
          "type": "uint256"
        },
        {
          "indexed": false,
          "internalType": "uint256",
          "name": "replyTo",
          "type": "uint256"
        },
        {
          "indexed": false,
          "internalType": "string",
          "name": "text",
          "type": "string"
        },
        {
          "indexed": false,
          "internalType": "string",
          "name": "imageUrl",
          "type": "string"
        },
        {
          "indexed": false,
          "internalType": "uint256",
          "name": "timestamp",
          "type": "uint256"
        }
      ],
      "name": "newReplyEvent",
      "type": "event"
    },
    {
      "constant": true,
      "inputs": [],
      "name": "feeCreateThread",
      "outputs": [
        {
          "internalType": "uint256",
          "name": "",
          "type": "uint256"
        }
      ],
      "payable": false,
      "stateMutability": "view",
      "type": "function"
    },
    {
      "constant": true,
      "inputs": [],
      "name": "feeReplyPost",
      "outputs": [
        {
          "internalType": "uint256",
          "name": "",
          "type": "uint256"
        }
      ],
      "payable": false,
      "stateMutability": "view",
      "type": "function"
    },
    {
      "constant": true,
      "inputs": [],
      "name": "indexLastThreads",
      "outputs": [
        {
          "internalType": "uint256",
          "name": "",
          "type": "uint256"
        }
      ],
      "payable": false,
      "stateMutability": "view",
      "type": "function"
    },
    {
      "constant": true,
      "inputs": [],
      "name": "indexReplies",
      "outputs": [
        {
          "internalType": "uint256",
          "name": "",
          "type": "uint256"
        }
      ],
      "payable": false,
      "stateMutability": "view",
      "type": "function"
    },
    {
      "constant": true,
      "inputs": [
        {
          "internalType": "uint256",
          "name": "",
          "type": "uint256"
        }
      ],
      "name": "lastThreads",
      "outputs": [
        {
          "internalType": "uint256",
          "name": "",
          "type": "uint256"
        }
      ],
      "payable": false,
      "stateMutability": "view",
      "type": "function"
    },
    {
      "constant": true,
      "inputs": [
        {
          "internalType": "uint256",
          "name": "",
          "type": "uint256"
        }
      ],
      "name": "replies",
      "outputs": [
        {
          "internalType": "string",
          "name": "text",
          "type": "string"
        },
        {
          "internalType": "string",
          "name": "imageUrl",
          "type": "string"
        },
        {
          "internalType": "uint256",
          "name": "replyTo",
          "type": "uint256"
        },
        {
          "internalType": "uint256",
          "name": "nextReply",
          "type": "uint256"
        },
        {
          "internalType": "uint256",
          "name": "timestamp",
          "type": "uint256"
        }
      ],
      "payable": false,
      "stateMutability": "view",
      "type": "function"
    },
    {
      "constant": true,
      "inputs": [],
      "name": "threadCount",
      "outputs": [
        {
          "internalType": "uint256",
          "name": "",
          "type": "uint256"
        }
      ],
      "payable": false,
      "stateMutability": "view",
      "type": "function"
    },
    {
      "constant": true,
      "inputs": [
        {
          "internalType": "uint256",
          "name": "",
          "type": "uint256"
        }
      ],
      "name": "threads",
      "outputs": [
        {
          "internalType": "string",
          "name": "subject",
          "type": "string"
        },
        {
          "internalType": "string",
          "name": "text",
          "type": "string"
        },
        {
          "internalType": "string",
          "name": "imageUrl",
          "type": "string"
        },
        {
          "internalType": "uint256",
          "name": "indexLastReply",
          "type": "uint256"
        },
        {
          "internalType": "uint256",
          "name": "indexFirstReply",
          "type": "uint256"
        },
        {
          "internalType": "uint256",
          "name": "timestamp",
          "type": "uint256"
        }
      ],
      "payable": false,
      "stateMutability": "view",
      "type": "function"
    },
    {
      "constant": false,
      "inputs": [
        {
          "internalType": "uint256",
          "name": "_feeCreateThread",
          "type": "uint256"
        },
        {
          "internalType": "uint256",
          "name": "_feeReplyPost",
          "type": "uint256"
        }
      ],
      "name": "setFees",
      "outputs": [],
      "payable": false,
      "stateMutability": "nonpayable",
      "type": "function"
    },
    {
      "constant": false,
      "inputs": [
        {
          "internalType": "uint256",
          "name": "amount",
          "type": "uint256"
        }
      ],
      "name": "withdraw",
      "outputs": [],
      "payable": false,
      "stateMutability": "nonpayable",
      "type": "function"
    },
    {
      "constant": false,
      "inputs": [
        {
          "internalType": "string",
          "name": "subject",
          "type": "string"
        },
        {
          "internalType": "string",
          "name": "text",
          "type": "string"
        },
        {
          "internalType": "string",
          "name": "imageUrl",
          "type": "string"
        }
      ],
      "name": "createThread",
      "outputs": [],
      "payable": true,
      "stateMutability": "payable",
      "type": "function"
    },
    {
      "constant": false,
      "inputs": [
        {
          "internalType": "uint256",
          "name": "_replyTo",
          "type": "uint256"
        },
        {
          "internalType": "string",
          "name": "_text",
          "type": "string"
        },
        {
          "internalType": "string",
          "name": "_imageUrl",
          "type": "string"
        }
      ],
      "name": "replyPost",
      "outputs": [],
      "payable": true,
      "stateMutability": "payable",
      "type": "function"
    }
  ],
  "bytecode": "0x6080604052600060045560006006556000601b5534801561001f57600080fd5b5060405161117e38038061117e8339818101604052604081101561004257600080fd5b50805160209091015160008054600160a060020a03191633179055600191909155600255611109806100756000396000f3fe6080604052600436106100c4576000357c0100000000000000000000000000000000000000000000000000000000900480635c7c366d116100815780635c7c366d1461045e5780637f4f88e41461057b578063c37d8a7e14610590578063c3c6e202146105a5578063dc63dbf0146105ba578063f552b2ba146105cf576100c4565b80630b78f9c0146100c95780630ca9a0f3146100fb57806317075992146101225780631d9d92741461014c5780632e1a7d4d14610280578063416bf26c146102aa575b600080fd5b3480156100d557600080fd5b506100f9600480360360408110156100ec57600080fd5b5080359060200135610752565b005b34801561010757600080fd5b50610110610781565b60408051918252519081900360200190f35b34801561012e57600080fd5b506101106004803603602081101561014557600080fd5b5035610787565b6100f96004803603606081101561016257600080fd5b8135919081019060408101602082013564010000000081111561018457600080fd5b82018360208201111561019657600080fd5b803590602001918460018302840111640100000000831117156101b857600080fd5b91908080601f016020809104026020016040519081016040528093929190818152602001838380828437600092019190915250929594936020810193503591505064010000000081111561020b57600080fd5b82018360208201111561021d57600080fd5b8035906020019184600183028401116401000000008311171561023f57600080fd5b91908080601f01602080910402602001604051908101604052809392919081815260200183838082843760009201919091525092955061079b945050505050565b34801561028c57600080fd5b506100f9600480360360208110156102a357600080fd5b5035610a41565b6100f9600480360360608110156102c057600080fd5b8101906020810181356401000000008111156102db57600080fd5b8201836020820111156102ed57600080fd5b8035906020019184600183028401116401000000008311171561030f57600080fd5b91908080601f016020809104026020016040519081016040528093929190818152602001838380828437600092019190915250929594936020810193503591505064010000000081111561036257600080fd5b82018360208201111561037457600080fd5b8035906020019184600183028401116401000000008311171561039657600080fd5b91908080601f01602080910402602001604051908101604052809392919081815260200183838082843760009201919091525092959493602081019350359150506401000000008111156103e957600080fd5b8201836020820111156103fb57600080fd5b8035906020019184600183028401116401000000008311171561041d57600080fd5b91908080601f016020809104026020016040519081016040528093929190818152602001838380828437600092019190915250929550610a8b945050505050565b34801561046a57600080fd5b506104886004803603602081101561048157600080fd5b5035610ced565b604051808060200180602001868152602001858152602001848152602001838103835288818151815260200191508051906020019080838360005b838110156104db5781810151838201526020016104c3565b50505050905090810190601f1680156105085780820380516001836020036101000a031916815260200191505b50838103825287518152875160209182019189019080838360005b8381101561053b578181015183820152602001610523565b50505050905090810190601f1680156105685780820380516001836020036101000a031916815260200191505b5097505050505050505060405180910390f35b34801561058757600080fd5b50610110610e3e565b34801561059c57600080fd5b50610110610e44565b3480156105b157600080fd5b50610110610e4a565b3480156105c657600080fd5b50610110610e50565b3480156105db57600080fd5b506105f9600480360360208110156105f257600080fd5b5035610e56565b6040518080602001806020018060200187815260200186815260200185815260200184810384528a818151815260200191508051906020019080838360005b83811015610650578181015183820152602001610638565b50505050905090810190601f16801561067d5780820380516001836020036101000a031916815260200191505b5084810383528951815289516020918201918b019080838360005b838110156106b0578181015183820152602001610698565b50505050905090810190601f1680156106dd5780820380516001836020036101000a031916815260200191505b5084810382528851815288516020918201918a019080838360005b838110156107105781810151838201526020016106f8565b50505050905090810190601f16801561073d5780820380516001836020036101000a031916815260200191505b50995050505050505050505060405180910390f35b60005473ffffffffffffffffffffffffffffffffffffffff16331461077657600080fd5b600191909155600255565b60045481565b6007816014811061079457fe5b0154905081565b6002543410156107aa57600080fd5b600454831080156107bb5750600083115b6107c457600080fd5b6040805160a08101825283815260208082018490528183018690526000606083018190524260808401526006548152600582529290922081518051929391926108109284920190611039565b5060208281015180516108299260018501920190611039565b5060408201518160020155606082015181600301556080820151816004015590505060036000848152602001908152602001600020600401546000141561088c5760065460008481526003602081905260409091206004810183905501556108b9565b60065460008481526003602081815260408084208301805485526005835290842083018590559287905252555b60005b60148160ff161015610918578360078260ff16601481106108d957fe5b015414156108e657610918565b8060ff166013141561091057836007601b546014811061090257fe5b015560146001601b5408601b555b6001016108bc565b507f0a10376fec2af3cfd7b84cf2d443bc3479c71cc96b6523d20fc876f4cdce745160065484848442604051808681526020018581526020018060200180602001848152602001838103835286818151815260200191508051906020019080838360005b8381101561099457818101518382015260200161097c565b50505050905090810190601f1680156109c15780820380516001836020036101000a031916815260200191505b50838103825285518152855160209182019187019080838360005b838110156109f45781810151838201526020016109dc565b50505050905090810190601f168015610a215780820380516001836020036101000a031916815260200191505b5097505050505050505060405180910390a1505060068054600101905550565b6000805460405173ffffffffffffffffffffffffffffffffffffffff9091169183156108fc02918491818181858888f19350505050158015610a87573d6000803e3d6000fd5b5050565b600154341015610a9a57600080fd5b6040805160c0810182528481526020808201859052818301849052600060608301819052608083018190524260a0840152600454815260038252929092208151805192939192610aed9284920190611039565b506020828101518051610b069260018501920190611039565b5060408201518051610b22916002840191602090910190611039565b50606082015181600301556080820151816004015560a082015181600501559050506004546007601b5460148110610b5657fe5b015560146001601b5408601b819055507f69aa71152b8924de28eb7fd6dafe367b0d7b996178b0b03369e7094a671193c56004548484844260405180868152602001806020018060200180602001858152602001848103845288818151815260200191508051906020019080838360005b83811015610bdf578181015183820152602001610bc7565b50505050905090810190601f168015610c0c5780820380516001836020036101000a031916815260200191505b50848103835287518152875160209182019189019080838360005b83811015610c3f578181015183820152602001610c27565b50505050905090810190601f168015610c6c5780820380516001836020036101000a031916815260200191505b50848103825286518152865160209182019188019080838360005b83811015610c9f578181015183820152602001610c87565b50505050905090810190601f168015610ccc5780820380516001836020036101000a031916815260200191505b509850505050505050505060405180910390a1505060048054600101905550565b60056020908152600091825260409182902080548351601f60026000196101006001861615020190931692909204918201849004840281018401909452808452909291839190830182828015610d845780601f10610d5957610100808354040283529160200191610d84565b820191906000526020600020905b815481529060010190602001808311610d6757829003601f168201915b505050505090806001018054600181600116156101000203166002900480601f016020809104026020016040519081016040528092919081815260200182805460018160011615610100020316600290048015610e225780601f10610df757610100808354040283529160200191610e22565b820191906000526020600020905b815481529060010190602001808311610e0557829003601f168201915b5050505050908060020154908060030154908060040154905085565b60025481565b60065481565b601b5481565b60015481565b60036020908152600091825260409182902080548351601f60026000196101006001861615020190931692909204918201849004840281018401909452808452909291839190830182828015610eed5780601f10610ec257610100808354040283529160200191610eed565b820191906000526020600020905b815481529060010190602001808311610ed057829003601f168201915b505050505090806001018054600181600116156101000203166002900480601f016020809104026020016040519081016040528092919081815260200182805460018160011615610100020316600290048015610f8b5780601f10610f6057610100808354040283529160200191610f8b565b820191906000526020600020905b815481529060010190602001808311610f6e57829003601f168201915b50505060028085018054604080516020601f600019610100600187161502019094169590950492830185900485028101850190915281815295969594509092509083018282801561101d5780601f10610ff25761010080835404028352916020019161101d565b820191906000526020600020905b81548152906001019060200180831161100057829003601f168201915b5050505050908060030154908060040154908060050154905086565b828054600181600116156101000203166002900490600052602060002090601f016020900481019282601f1061107a57805160ff19168380011785556110a7565b828001600101855582156110a7579182015b828111156110a757825182559160200191906001019061108c565b506110b39291506110b7565b5090565b6110d191905b808211156110b357600081556001016110bd565b9056fea265627a7a72315820b582e97185e11f4f6e4ad3ed530d83e55efc277c818901505fe0570c7d33931f64736f6c63430005100032",
  "source": "/**\n * @title Bitchan\n * @dev message board republic\n * @author vanities\n * @notice thanks to: https://etherscan.io/address/0x470fb19D08c3d2eB8923A31d1408c393Dab09ccF#code\n */\n\npragma solidity >=0.4.22 <0.7.0;\n\ncontract Bitchan {\n\n\taddress payable private owner;\n\n\tuint256 public feeCreateThread;\n\tuint256 public feeReplyPost;\n\n\tstruct thread {\n        string subject;\n\t\tstring text;\n\t\tstring imageUrl;\n\n\t\tuint256 indexLastReply;\n\t\tuint256 indexFirstReply;\n\n\t\tuint256 timestamp;\n\t}\n\tmapping (uint256 => thread) public threads;\n\tuint256 public threadCount = 0;\n\n\tstruct reply {\n\t\tstring text;\n\t\tstring imageUrl;\n\n\t\tuint256 replyTo;\n\t\tuint256 nextReply;\n\n\t\tuint256 timestamp;\n\t}\n\tmapping (uint256 => reply) public replies;\n\tuint256 public indexReplies = 0;\n\n\t// last 20 active threads\n\tuint256[20] public lastThreads;\n    // the index of the thread that was added last in lastThreads\n\tuint256 public indexLastThreads = 0;\n\n\t//\n\t// Events\n\t//\n\n\tevent createThreadEvent(uint256 threadId, string subject, string text, string imageUrl, uint256 timestamp);\n\n\tevent newReplyEvent(uint256 replyId, uint256 replyTo, string text, string imageUrl, uint256 timestamp);\n\n\t//\n\t// Meta\n\t//\n\n\tconstructor(uint256 _feeCreateThread, uint256 _feeReplyPost) public {\n\t\towner = msg.sender;\n\t\tfeeCreateThread = _feeCreateThread;\n\t\tfeeReplyPost = _feeReplyPost;\n\t}\n\n\t// modifying the fees\n\tfunction setFees(uint256 _feeCreateThread, uint256 _feeReplyPost) public {\n\t\trequire(owner == msg.sender);\n\t\tfeeCreateThread = _feeCreateThread;\n\t\tfeeReplyPost = _feeReplyPost;\n\t}\n\n\t// To get the money back\n\tfunction withdraw(uint256 amount) public {\n\t\towner.transfer(amount);\n\t}\n\n\t//\n\t// Core\n\t//\n\n\t// To create a Thread\n\tfunction createThread(string memory subject, string memory text, string memory imageUrl) payable public {\n\t\t// collect the fees\n\t\trequire(msg.value >= feeCreateThread);\n\t\t// calculate a new thread ID and post\n\t\tthreads[threadCount] = thread(subject, text, imageUrl, 0, 0, now);\n\t\t// add it to our last active threads array\n\t\tlastThreads[indexLastThreads] = threadCount;\n\t\tindexLastThreads = addmod(indexLastThreads, 1, 20); // increment index\n\t\t// log!\n\t\temit createThreadEvent(threadCount, subject, text, imageUrl, now);\n\t\t// increment index for next thread\n\t\tthreadCount += 1;\n\t}\n\n\t// To reply to a thread\n\tfunction replyPost(uint256 _replyTo, string memory _text, string memory _imageUrl)  payable public {\n\t\t// collect the fees\n\t\trequire(msg.value >= feeReplyPost);\n\t\t// make sure you can't reply to an inexistant thread\n\t\trequire(_replyTo < threadCount && _replyTo > 0);\n\t\t// post the reply with nextReply = 0 (this is the last message in the chain)\n\t\treplies[indexReplies] = reply(_text, _imageUrl, _replyTo, 0, now);\n\t\t// update the thread\n\t\tif(threads[_replyTo].indexFirstReply == 0){// we're first\n\t\t\tthreads[_replyTo].indexFirstReply = indexReplies;\n\t\t\tthreads[_replyTo].indexLastReply = indexReplies;\n\t\t}\n\t\telse { // we're not first so we update the previous reply as well\n\t\t\treplies[threads[_replyTo].indexLastReply].nextReply = indexReplies;\n\t\t\tthreads[_replyTo].indexLastReply = indexReplies;\n\t\t}\n\t\t// update the last active threads\n\t\tfor (uint8 i = 0; i < 20; i++) {\n\t\t\tif(lastThreads[i] == _replyTo) {\n\t\t\t\tbreak; // already in the list\n\t\t\t}\n\t\t\tif(i == 19) {\n\t\t\t\tlastThreads[indexLastThreads] = _replyTo;\n\t\t\t\tindexLastThreads = addmod(indexLastThreads, 1, 20);\n\t\t\t}\n\t\t}\n\t\t// log!\n\t\temit newReplyEvent(indexReplies, _replyTo, _text, _imageUrl, now);\n\t\t// increment index for next reply\n\t\tindexReplies += 1;\n\t}\n}\n",
  "sourcePath": "/sources/contracts/Bitchan.sol",
  "compiler": {
    "name": "solc",
    "version": "0.5.16+commit.9c3226ce.Emscripten.clang"
  },
  "schemaVersion": "3.1.0",
  "updatedAt": "2020-06-30T03:38:21.588Z",
  "networkType": "ethereum",
  "devdoc": {
    "methods": {}
  },
  "userdoc": {
    "methods": {}
  }
}